:020000040800F2
:1000000000000220B1930008FD8B0008FF8B000860
:10001000018C0008038C0008058C0008000000001B
:1000200000000000000000000000000011F20008C5
:10003000078C000800000000B1F20008C1E70008CA
:10004000019400080194000801940008019400083C
:10005000019400080194000801940008019400082C
:10006000019400080194000801940008019400081C
:10007000098C00080194000801940008019400080C
:10008000019400080194000801940008198C0008EC
:10009000298C0008019400080194000801940008CC
:1000A00001940008019400080194000801940008DC
:1000B00001940008019400080194000801940008CC
:1000C00001940008019400080194000801940008BC
:1000D00001940008398C000801940008498C00083C
:1000E000019400080194000801940008019400089C
:1000F000019400080194000801940008019400088C
:10010000019400080194000801940008019400087B
:10011000019400080194000801940008598C00081B
:10012000698C0008798C0008898C0008998C00087B
:10013000019400080194000801940008A98C0008AB
:1001400001940008B98C000801940008C98C0008CB
:10015000D98C000801940008E98C0008F98C00088B
:10016000019400080194000801940008019400081B
:1001700001940008019400080194000800000000A8
:0801800001940008019400083D
:1001C00008B52DED028BB0EE408A00F059F8B4EE80
:1001D000488AF1EE10FAF0EE408A0AD6B0EE480AEC
:1001E00000F03CF8F7EE007AB4EEE70AF1EE10FA10
:1001F00004DCB0EE680ABDEC028B08BD02F054FED0
:10020000BDEC028B034621221A600248BDE808407B
:1002100000F02CB8DCA7010808B52DED028BB0EE7C
:10022000408A00F029F8B4EE488AF1EE10FA06D6BA
:10023000DFED098AB4EEE88AF1EE10FA02D4BDECE3
:10024000028B08BD02F030FE88EEA80ABDEC028BDE
:100250002123036008BD00BF0000000010EE103A2B
:1002600023F0004300EE103A704700BF9FED010AF3
:10027000704700BF0000C07FB1EEC00A704700BFEA
:1002800038B510EE105A25F00044B4F17E5F2DED24
:10029000048BF0EE407A7FD077D8B4F17C5F0ED239
:1002A000B4F1485F80F092809FED637A30EE077A78
:1002B000F7EE006AB4EEE67AF1EE10FA62DCB0EE28
:1002C000670AFFF7CBFFF7EE007A37EEC08AB6EE8B
:1002D000007A28EE078ADFED596A9FED597A9FED83
:1002E000596A9FED595ADFED595ADFED598AE8EE08
:1002F000076A9FED587AA8EE067A9FED576AA6EE38
:10030000885AA7EE086A9FED557ADFED556AE5EE4B
:10031000085AA6EE087AE5EE886AE7EE087AE6EE75
:10032000888AB0EE480AB0EE679AFFF7A5FF4D4BFA
:100330009C4268EE888A3AD810EE103A6FF30B03AD
:1003400006EE903AA6EEE68A70EE267A88EE895A94
:10035000C8EE274A9FED447ADFED447AB0EE006A9A
:10036000A4EEC67A30EE000AF0EE675A90EE057AF7
:10037000E6EEC65A37EE657A37EEC70A002D01DC85
:10038000B1EE400ABDEC048B38BDBDEC048B70EEC1
:10039000407A87EEA70A38BDBDEC048B9FED320A88
:1003A0009FED337A27EE800AA7EE870A38BD88EEE4
:1003B000896A9FED307ADFED2E7AA0EE060AF0EE24
:1003C000006AA0EE267A37EEC70AD7E720EE007A59
:1003D000DFED1B6A9FED196ADFED1B5A9FED195A7D
:1003E000DFED1A4AA7EE266ABDEC048BE6EE075A4B
:1003F000DFED186A9FED186AE7EE056AE5EE874AB9
:10040000A6EE876A9FED165ADFED145ADFED106AEB
:10041000A4EE875AE6EE075AE5EE076AB7EE006AE1
:10042000A5EE876A26EE877AC7EE066AE0EE267AA0
:10043000B0EE670A38BD00BFCAF24971047F4F3A77
:1004400008EF11382EC69D3D461124BDA80A4E3E28
:10045000ABAA2A3E613330BF2D57014039D119C0B4
:1004600090B0A6BE9999793F2EBD3BB3DB0F493FB3
:10047000DB0FC93F2EBD3B3381F0004102E000BFDE
:1004800083F0004330B54FEA41044FEA430594EA54
:10049000050F08BF90EA020F1FBF54EA000C55EA8F
:1004A000020C7FEA645C7FEA655C00F0E2804FEA60
:1004B0005454D4EB5555B8BF6D420CDD2C4480EA42
:1004C000020281EA030382EA000083EA010180EA72
:1004D000020281EA0303362D88BF30BD11F0004FC0
:1004E0004FEA01314FF4801C4CEA113102D04042F6
:1004F00061EB410113F0004F4FEA03334CEA133331
:1005000002D0524263EB430394EA050F00F0A78048
:10051000A4F10104D5F1200E0DDB02FA0EFC22FA43
:1005200005F2801841F1000103FA0EF2801843FA37
:1005300005F359410EE0A5F120050EF1200E012A28
:1005400003FA0EFC28BF4CF0020C43FA05F3C01866
:1005500051EBE37101F0004507D54FF0000EDCF1DF
:10056000000C7EEB00006EEB0101B1F5801F1BD388
:10057000B1F5001F0CD349085FEA30004FEA3C0C8C
:1005800004F101044FEA445212F5800F80F09A8082
:10059000BCF1004F08BF5FEA500C50F1000041EB86
:1005A000045141EA050130BD5FEA4C0C404141EB8A
:1005B0000101013C28BFB1F5801FE9D291F0000F85
:1005C00004BF01460020B1FA81F308BF2033A3F134
:1005D0000B03B3F120020CDA0C3208DD02F1140C2B
:1005E000C2F10C0201FA0CF021FA02F10CE002F166
:1005F0001402D8BFC2F1200C01FA02F120FA0CFC5F
:10060000DCBF41EA0C019040E41AA2BF01EB0451A7
:10061000294330BD6FEA04041F3C1CDA0C340EDCA5
:1006200004F11404C4F1200220FA04F001FA02F3E8
:1006300040EA030021FA04F345EA030130BDC4F1A6
:100640000C04C4F1200220FA02F001FA04F340EA9B
:100650000300294630BD21FA04F0294630BD94F04C
:10066000000F83F4801306BF81F480110134013D33
:100670004EE77FEA645C18BF7FEA655C29D094EAA4
:10068000050F08BF90EA020F05D054EA000C04BF22
:100690001946104630BD91EA030F1EBF002100200D
:1006A00030BD5FEA545C05D14000494128BF41F0AC
:1006B000004130BD14F580043CBF01F5801130BD10
:1006C00001F0004545F0FE4141F470014FF000009B
:1006D00030BD7FEA645C1ABF194610467FEA655C4C
:1006E0001CBF0B46024650EA013406BF52EA0335EE
:1006F00091EA030F41F4002130BD00BF90F0000FDC
:1007000004BF0021704730B54FF4806404F1320417
:100710004FF000054FF0000150E700BF90F0000FD0
:1007200004BF0021704730B54FF4806404F13204F7
:1007300010F0004548BF40424FF000013EE700BFC7
:1007400042004FEAE2014FEA31014FEA02701FBF57
:1007500012F07F4393F07F4F81F06051704732F089
:100760007F4208BF704793F07F4F04BF41F40021E0
:10077000704730B54FF4607401F0004521F000413E
:100780001CE700BF50EA010208BF704730B54FF0C8
:1007900000050AE050EA010208BF704730B511F0C9
:1007A000004502D5404261EB41014FF4806404F101
:1007B00032045FEA915C3FF4D8AE4FF003025FEA87
:1007C000DC0C18BF03325FEADC0C18BF033202EB0B
:1007D000DC02C2F1200300FA03FC20FA02F001FA65
:1007E00003FE40EA0E0021FA02F11444BDE600BF08
:1007F00070B54FF0FF0C4CF4E06C1CEA11541DBFB7
:100800001CEA135594EA0C0F95EA0C0F00F0DEF881
:100810002C4481EA030621EA4C5123EA4C5350EA66
:10082000013518BF52EA033541F4801143F48013B7
:1008300038D0A0FB02CE4FF00005E1FB02E506F048
:100840000042E0FB03E54FF00006E1FB03569CF09D
:10085000000F18BF4EF0010EA4F1FF04B6F5007FA3
:1008600064F5407404D25FEA4E0E6D4146EB060615
:1008700042EAC62141EA55514FEAC52040EA5E509E
:100880004FEACE2EB4F1FD0C88BFBCF5E06F1ED848
:10089000BEF1004F08BF5FEA500E50F1000041EB7F
:1008A000045170BD06F0004646EA010140EA02002C
:1008B00081EA0301B4EB5C04C2BFD4EB0C0541EA4E
:1008C000045170BD41F480114FF0000E013C00F363
:1008D000AB8014F1360FDEBF002001F0004170BD87
:1008E000C4F10004203C35DA0C341BDC04F11404A0
:1008F000C4F1200500FA05F320FA04F001FA05F22C
:1009000040EA020001F0004221F0004110EBD370F8
:1009100021FA04F642EB06015EEA430E08BF20EA24
:10092000D37070BDC4F10C04C4F1200500FA04F3C7
:1009300020FA05F001FA04F240EA020001F0004159
:1009400010EBD37041F100015EEA430E08BF20EACC
:10095000D37070BDC4F1200500FA05F24EEA020E14
:1009600020FA04F301FA05F243EA020321FA04F043
:1009700001F0004121FA04F220EA020000EBD370FA
:100980005EEA430E08BF20EAD37070BD94F0000FFA
:100990000FD101F00046400041EB010111F4801F2E
:1009A00008BF013CF7D041EA060195F0000F18BFDF
:1009B000704703F00046520043EB030313F4801F1B
:1009C00008BF013DF7D043EA0603704794EA0C0FD5
:1009D0000CEA135518BF95EA0C0F0CD050EA4106EB
:1009E00018BF52EA4306D1D181EA030101F0004168
:1009F0004FF0000070BD50EA410606BF1046194690
:100A000052EA430619D094EA0C0F02D150EA01369B
:100A100013D195EA0C0F05D152EA03361CBF1046DC
:100A200019460AD181EA030101F0004141F0FE417B
:100A300041F470014FF0000070BD41F0FE4141F4FF
:100A4000780170BD70B54FF0FF0C4CF4E06C1CEAFF
:100A500011541DBF1CEA135594EA0C0F95EA0C0FB4
:100A600000F0A7F8A4EB050481EA030E52EA03356F
:100A70004FEA013100F088804FEA03334FF0805590
:100A800045EA131343EA12634FEA022245EA1115BD
:100A900045EA10654FEA00260EF000419D4208BF6E
:100AA000964244F1FD0404F5407402D25B084FEA1B
:100AB0003202B61A65EB03055B084FEA32024FF4C7
:100AC00080104FF4002CB6EB020E75EB030E22BF24
:100AD000B61A754640EA0C005B084FEA3202B6EBE4
:100AE000020E75EB030E22BFB61A754640EA5C0093
:100AF0005B084FEA3202B6EB020E75EB030E22BF23
:100B0000B61A754640EA9C005B084FEA3202B6EB23
:100B1000020E75EB030E22BFB61A754640EADC00E2
:100B200055EA060E18D04FEA051545EA16754FEA44
:100B300006164FEAC30343EA52734FEAC2025FEA62
:100B40001C1CC0D111F4801F0BD141EA00014FF0F1
:100B500000004FF0004CB6E711F4801F04BF0143C2
:100B60000020B4F1FD0C88BFBCF5E06F3FF6AFAEDE
:100B7000B5EB030C04BFB6EB020C5FEA500C50F16E
:100B8000000041EB045170BD0EF0004E4EEA1131F1
:100B900014EB5C04C2BFD4EB0C0541EA045170BDF8
:100BA00041F480114FF0000E013C90E645EA060E3C
:100BB0008DE60CEA135594EA0C0F08BF95EA0C0F6A
:100BC0003FF43BAF94EA0C0F0AD150EA01347FF4B2
:100BD00034AF95EA0C0F7FF425AF104619462CE789
:100BE00095EA0C0F06D152EA03353FF4FDAE1046EC
:100BF000194622E750EA410618BF52EA43067FF43D
:100C0000C5AE50EA41047FF40DAF52EA43057FF4CC
:100C1000EBAE12E74FF0FF3C06E000BF4FF0010CD7
:100C200002E000BF4FF0010C4DF804CD4FEA410C3B
:100C30007FEA6C5C4FEA430C18BF7FEA6C5C1BD008
:100C400001B050EA410C0CBF52EA430C91EA030F89
:100C500002BF90EA020F0020704710F1000F91EAE6
:100C6000030F58BF994208BF90422CBFD8176FEAB4
:100C7000E37040F0010070474FEA410C7FEA6C5C82
:100C800002D150EA013C07D14FEA430C7FEA6C5C89
:100C9000D6D152EA033CD3D05DF8040B704700BFB5
:100CA0008446104662468C461946634600E000BF03
:100CB00001B5FFF7B7FF002848BF10F1000F01BDD5
:100CC0004DF808EDFFF7F4FF0CBF012000205DF8A0
:100CD00008FB00BF4DF808EDFFF7EAFF34BF012025
:100CE00000205DF808FB00BF4DF808EDFFF7E0FFBE
:100CF00094BF012000205DF808FB00BF4DF808ED0F
:100D0000FFF7CEFF94BF012000205DF808FB00BF75
:100D10004DF808EDFFF7C4FF34BF012000205DF857
:100D200008FB00BF80F0004002E000BF81F00041FE
:100D300042001FBF5FEA410392EA030F7FEA226C81
:100D40007FEA236C6AD04FEA1262D2EB1363C1BF11
:100D5000D218414048404140B8BF5B42192B88BF80
:100D6000704710F0004F40F4000020F07F4018BFA3
:100D7000404211F0004F41F4000121F07F4118BFC3
:100D8000494292EA030F3FD0A2F1010241FA03FC6B
:100D900010EB0C00C3F1200301FA03F100F0004353
:100DA00002D5494260EB4000B0F5000F13D3B0F11B
:100DB000807F06D340084FEA310102F10102FE2A8A
:100DC00051D2B1F1004F40EBC25008BF20F00100FA
:100DD00040EA03007047490040EB0000013A28BF99
:100DE000B0F5000FEDD2B0FA80FCACF1080CB2EB1C
:100DF0000C0200FA0CF0AABF00EBC250524218439A
:100E0000BCBFD0401843704792F0000F81F400013E
:100E100006BF80F400000132013BB5E74FEA410311
:100E20007FEA226C18BF7FEA236C21D092EA030F7D
:100E300004D092F0000F08BF0846704790EA010FF7
:100E40001CBF0020704712F07F4F04D1400028BF24
:100E500040F00040704712F100723CBF00F5000006
:100E6000704700F0004343F0FE4040F4000070473C
:100E70007FEA226216BF08467FEA236301464202E8
:100E800006BF5FEA412390EA010F40F480007047FB
:100E90004FF0000304E000BF10F0004348BF4042A1
:100EA0005FEA000C08BF704743F0964301464FF0DD
:100EB00000001CE050EA010208BF70474FF0000339
:100EC0000AE000BF50EA010208BF704711F000437A
:100ED00002D5404261EB41015FEA010C02BF84464A
:100EE0000146002043F0B64308BFA3F18053A3F5A9
:100EF0000003BCFA8CF2083AA3EBC25310DB01FAF0
:100F000002FC634400FA02FCC2F12002BCF1004F73
:100F100020FA02F243EB020008BF20F00100704704
:100F200002F1200201FA02FCC2F1200250EA4C0058
:100F300021FA02F243EB020008BF20EADC7070479E
:100F400053B94AB9002908BF00281CBF4FF0FF3130
:100F50004FF0FF3000F0E2B8ADF1080C6DE904CEBF
:100F600018F0FAF9DDF804E0DDE9022304B0704777
:100F700000F1340191E838009C46A6464CF8045D27
:100F800090E8FF0FE54600BD90EC210B704700BFD5
:100F900080EC210B704700BF90EC200B704700BF26
:100FA00080EC200B704700BFD0EC200B704700BFD7
:100FB000C0EC200B704700BFF0EC0201F0EC021116
:100FC000F0EC0221F0EC0231F0EC0241F0EC0251C5
:100FD000F0EC0261F0EC0271F0EC0281F0EC0291B5
:100FE000F0EC02A1F0EC02B1F0EC02C1F0EC02D1A5
:100FF000F0EC02E1F0EC02F1704700BFE0EC02011E
:10100000E0EC0211E0EC0221E0EC0231E0EC024104
:10101000E0EC0251E0EC0261E0EC0271E0EC0281F4
:10102000E0EC0291E0EC02A1E0EC02B1E0EC02C1E4
:10103000E0EC02D1E0EC02E1E0EC02F1704700BF2D
:10104000B0FC0181B0FC0191B0FC01A1B0FC01B188
:10105000704700BFA0FC0181A0FC0191A0FC01A190
:10106000A0FC01B1704700BFEC4600B52DE900506F
:101070002DE9FF1F4FF000032DE90C0001A918F026
:10108000F6FBDDF840E012B0704700BFEC4600B55B
:101090002DE900502DE9FF1F4FF000032DE90C0052
:1010A00001A918F01BFCDDF840E012B0704700BF4A
:1010B000EC4600B52DE900502DE9FF1F4FF000036D
:1010C0002DE90C0001A918F029FCDDF840E012B070
:1010D000704700BFEC4600B52DE900502DE9FF1F19
:1010E0004FF000032DE90C0001AB18F0EDFBDDF82B
:1010F00040E012B0704700BFEC4600B52DE900504B
:101100002DE9FF1F4FF000032DE90C0001AA18F094
:101110005EFCDDF840E012B0704700BF704700BFD2
:1011200008B5062001F068FD012007F0F7FD00BFBB
:10113000002301461A46184602F04EBA10B4044C79
:1011400003460A4620685DF8044B194600F010B8C3
:101150002004002000B5054B83B0014601AA1868A1
:1011600000F006F803B05DF804FB00BF2004002087
:101170002DE9F047DFF8749007460E46904602F0DE
:101180006BFAD9F800504DB133781C466BB1344638
:1011900002E014F8013F3BB13D2BFAD1384602F092
:1011A00061FA0020BDE8F087A41B28680028F5D06C
:1011B0002246314601F03EFC28B92868035D3D2BEC
:1011C00000EB040A04D055F8040F0028F0D1E5E73D
:1011D000D9F80030EB1A9B103846C8F8003002F0FE
:1011E00041FA0AF10100BDE8F08700BFDC060020EB
:1011F00000B583B001AAFFF7BBFF03B05DF804FBA5
:10120000024B0146186800F00BB800BF2004002014
:10121000024B0146186802F087BA00BF2004002084
:101220002DE9F04F01F10B05162D83B0064623D8AA
:10123000102900F2AF8000F09DFA1025182302203B
:10124000C04F3B44A3F108025C68944200F0238144
:101250006368E268A16823F00303CA602344304650
:1012600091605A6842F001025A6000F089FA08342D
:10127000204603B0BDE8F08F35F0070500F18A8005
:10128000A94200F2878000F075FAB5F5FC7FC0F046
:101290006B816B0A00F08280042B00F22281AB0983
:1012A00003F1390003F1380EC300A64F3B44A3F10C
:1012B000080C5C68A44507D10DE0002AE16880F2C3
:1012C000E4808C4507D00C46636823F003035A1B67
:1012D0000F2AF2DD7046DFF870823C69444500F069
:1012E000C180636823F0030CACEB05030F2B00F304
:1012F0003F81002BC7E9048880F22A81BCF5007F7A
:10130000D7F804E080F0CD804FEADC0101314FEAEC
:101310005C1C012303FA0CF357F83120A2604EEA5B
:10132000030E07EBC103083BE360C7F804E047F88E
:101330003140D46083104FF0010C0CFA03FCF445EB
:1013400032D81CEA0E0F08D120F003004FEA4C0CF3
:101350001CEA0E0F00F10400F8D007EBC00AD646D5
:101360008146DEF80C300BE0596821F003014A1B7E
:101370000F2A1C46DB6800F3C080002A80F2D4806C
:101380009E45F1D109F1010919F0030F0EF1080E84
:10139000E7D116E10C233360002469E74FF40073B2
:1013A00040204FF03F0E80E7BC68636823F00309DC
:1013B000A94503D3A9EB05030F2B56DCDFF88CB14D
:1013C000DBF8002004EB09031032082002EB0508CB
:1013D000009301F0BFFDD7F808140131024605D093
:1013E00008F1FF388044414201EA0808414630468E
:1013F000019201F031FDB0F1FF3F019A824600F009
:10140000D280009B834200F2CC80DBF80410414480
:10141000CBF8041002F1FF3C40F0F58010EA0C0F0D
:1014200040F0F180D7F808A0C84448F00100CAF89D
:101430000400DBF82C208A42DBF8302038BFCBF8E0
:101440002C108A4238BFCBF83010544620F00308E5
:10145000A845A8EB050301D30F2B06DC304600F0AE
:101460008FF999E7D7F804E064E7621943F00103C4
:1014700045F0010565603046BA60536000F080F9C0
:101480000834204603B0BDE8F08FA2682344D16041
:1014900030468A60E5E6DC68A3427FF4D9AE0230CC
:1014A00019E7BCF5206F4FEA5C2273D3142A00F2CF
:1014B000098102F15C03DB005B32F918FB58083943
:1014C000994203D1E5E09B68994204D05A6822F022
:1014D00003026245F7D8D968C4E902318C60DC6048
:1014E00028E7142B62D9542B00F2F5802B0B03F163
:1014F0006F0003F16E0EC300D7E6D4F808C0304683
:10150000661945F001056560CCF80C30C3F808C0D9
:1015100042F00103C7E90466C6E9028873606250BD
:1015200000F02EF90834A3E6214430464A6842F020
:1015300001024A6054F8082FD3609A6000F020F945
:1015400096E600BF000000200800002018080020D8
:10155000A4443046DCF8043043F00103CCF80430F6
:1015600000F00EF9083483E6E80805F1080367E6A1
:10157000621943F0010145F0010565603046C7E995
:101580000422C2E90288516044F80C3000F0F8F8F7
:1015900008346DE64FEA9C1202F13903DB00383261
:1015A0008BE7BC4228D0BC6860684FE703F15C0061
:1015B00003F15B0EC30078E65AF80839534540F052
:1015C000D78010F0030F00F1FF30F5D17B6823EADC
:1015D0000C037B604FEA4C0C9C453FF6E5AEBCF13A
:1015E000000F04D1E0E64FEA4C0C09F104091CEAB3
:1015F000030FF8D04846B0E6DBF804104144CBF8BE
:10160000041002F1FF3CD7F8080401306DD0009BB4
:10161000AAEB03031944CBF804101AF00703009354
:1016200041D0C3F108018A44D0440A4408EA0C01BD
:10163000521A02EA0C013046019101F00DFC421CE5
:101640006FD00199A0EB0A0000EB0108DBF8042041
:10165000C7F808A048F001001144BC42CAF80400D1
:10166000CBF804103FF4E5AEB9F10F0F40D9626832
:10167000A9F10C0020F0070002F0010202436260B1
:10168000052322180F28C2E9013352D8DAF80400E2
:10169000CFE692104FF0010C0CFA02F24EEA020E65
:1016A000C7F804E018E70AEB080101EA0C01521A36
:1016B00002EA0C013046019101F0CEFB431CC0D17F
:1016C0000099C3E7542A17D84FEA1C3202F16F037E
:1016D000DB006E32F1E6B3F5AA7F17D8EB0B03F10E
:1016E000780003F1770EC300DFE5C7F808A494E79C
:1016F0000123CAF80430B1E6B2F5AA7F23D84FEA35
:10170000DC3202F17803DB007732D6E640F2545245
:10171000934223D8AB0C03F17D0003F17C0EC30090
:10172000C3E5009BA3F108029044A8EB0A0800213E
:101730008CE704F10801304601F0F6FFDBF80410F5
:10174000D7F808A0A2E740F254539A420CD84FEAC7
:101750009C4202F17D03DB007C32AEE64FF47E73E7
:101760007F204FF07E0EA0E54FF47E737E22A4E62C
:101770007B682FE7014801F0E3BB00BF9C09002014
:10178000014801F0E5BB00BF9C09002010B4044CE7
:1017900003460A4620685DF8044B194600F002B87B
:1017A000200400202DE9F84F1646002900F096800D
:1017B0000C46804606F10B05FFF7DCFF54F8041CCD
:1017C000162DA4F1080921F0030758D81025AE42C0
:1017D00058D8AF4260DABE4B9A6809EB070C6245F5
:1017E000DCF8040000F0908020F0010363445B68A3
:1017F000DB0768D420F003003B189D4247DDCB0790
:1018000012D454F8083CA9EB030BDBF8043023F0A6
:101810000302104400EB070A554540F3F68007EB3E
:10182000020A554540F3CC8031464046FFF7F8FCAC
:101830000646002800F0208154F8043C23F0010300
:101840004B44A0F10802934200F0B4803A1F242ACE
:1018500000F2D780132A00F2A280034622461168C4
:1018600019605168596092689A602146404601F0BB
:101870005BFF4046FFF784FF3046BDE8F88F35F048
:101880000705A4D50C23C8F80030002618E01F4631
:10189000DCE90223D3609A60D9F804307A1B0F2A5E
:1018A00003F0010309EB07001DD83B43C9F80430DE
:1018B000436843F0010343604046FFF761FF26465B
:1018C0003046BDE8F88FC907AED454F8083CA9EB00
:1018D000030BDBF8043023F00302A0E7BDE8F84F68
:1018E0001146FFF79DBC09EB05012B4342F00102B5
:1018F000C9F804304A60436843F00103436008318B
:10190000404601F011FFD7E720F00300C21905F1AE
:10191000100C624580F29180CA0785D454F8082CD7
:10192000A9EB020BDBF8042022F00302104400EBC9
:10193000070AD4453FF773AF5E46DBF80C1056F844
:10194000080F3A1F242AC160886000F2AE80132A73
:1019500040F2A9802168CBF808106168CBF80C1020
:101960001B2A00F2A88008340BF1100221681160D4
:1019700061685160A16891600BEB0501AAEB05025B
:1019800042F0010299604A60DBF8043003F0010381
:101990002B434046CBF80430FFF7F2FE90E7236874
:1019A0000360636843601B2A3CD804F1080200F11D
:1019B000080354E750F8043C23F003031F446BE78B
:1019C0003A1F5E46DBF80C3056F8081F242ACB601D
:1019D000996022D8132A1ED92368CBF8083063688F
:1019E000CBF80C301B2A3BD808340BF110032268CB
:1019F0001A6062685A60A2689A6034465746D946AF
:101A00004AE7214600F0DCFE2FE7DCE902133A1F2B
:101A1000CB609960D5E73346E9E72146304600F0D0
:101A2000CFFEEAE7A3688360E368C360242A27D077
:101A300004F1100200F1100311E709EB05019960B0
:101A4000531B43F001034B6054F8043C03F00103C3
:101A50002B43404644F8043CFFF792FE26462FE70E
:101A6000A368CBF81030E368CBF81430242A10D0E8
:101A700010340BF11803BAE74046FFF781FE04E784
:101A8000236903616169416104F1180200F11803DF
:101A9000E5E62369CBF818306369CBF81C301834BD
:101AA0000BF12003A3E7324660E72146304600F001
:101AB00087FE074B60E7A168CBF81010E168CBF810
:101AC0001410242A06D010340BF118024EE700BF80
:101AD000000000202269CBF818206269CBF81C2096
:101AE00018340BF1200241E72DE9F0470746494839
:101AF0000E46354616F801EB10F80EC01CF0080C27
:101B0000F7D1BEF12D0F5AD0BEF12B0F03BF96F8BF
:101B100000E06446AE1C64464BB9BEF1300F5CD0A9
:101B20000A23DFF8F4804FF0050A99460AE0102BEB
:101B30004AD04FF0FF38B8FBF3F803FB08FA6FEA1E
:101B40000A0A99460025284605E02CD009FB00C06A
:101B5000012516F801EBAEF1300CBCF1090F06D9E6
:101B6000AEF1410CBCF1190F0BD8AEF1370C634547
:101B700010DDB5F1FF3FECD04045E6D94FF0FF3521
:101B8000E7E7AEF1610CBCF1190F03D8AEF1570CC9
:101B90006345EEDC6B1C0BD004B140420AB165B961
:101BA0001160BDE8F087D445D0DD4FF0FF35D0E7B8
:101BB00022233B602846002AF3D0711EF0E796F8F6
:101BC00000E00124AE1CA7E7BEF1300F11D04FF0AA
:101BD0000F0A6FF070489946B4E7337803F0DF03DB
:101BE000582B0BD008234FF0070A6FF06048994636
:101BF000A8E7307800F0DF005828E8D14FF010094E
:101C000096F801E04FF00F0A02366FF070484B462D
:101C100098E700BF65A201089999991964E700BF88
:101C200010B4044C8446134620685DF8044B0A4601
:101C3000614659E72004002010B4044C8446134642
:101C400020685DF8044B0A4661464DE720040020F9
:101C500013460A460146022001F0BEBC024A03496F
:101C6000034800F093BB00BF10040020F5520008A9
:101C7000280400200C4B4168994210B5044601D05D
:101C800003F038FBA168094B994202D0204603F0CB
:101C900031FBE168064B994204D02046BDE8104074
:101CA00003F028BB10BD00BF4C080020B408002082
:101CB0001C09002008B54B6EDA0702D48B899B05FE
:101CC00001D5002008BD886D01F03AF9002008BD5B
:101CD00008B54B6EDA0702D48B899B0501D500202D
:101CE00008BD886D01F034F9002008BD2DE9F843E6
:101CF000314C3249DFF8D890DFF8D880304FC4F843
:101D00003811002504232946082204F15C002D4ED9
:101D1000E360C4E90055C4E90455A5606566A561A2
:101D200000F0CEFD04F15800C4E90749C4E9098771
:101D3000E66201F0FDF82946234B6367082204F1AF
:101D4000C400C4E91A55C4E91E552567C4F8CC502F
:101D5000C4F8805000F0B4FD04F1680304F1C00041
:101D6000C4F88430C4E92298C4E9247601F0E0F88C
:101D7000164BC4F8DC30294604F596700822C4E9F5
:101D80003455C4E93855C4F8D850C4F83451C4F8AF
:101D9000E85000F095FD04F1D003C4E93D87C4F894
:101DA000F09004F59470C4F8FC60C4F8EC30BDE821
:101DB000F84301F0BDB800BF4C0800205D1C0008CE
:101DC000B1250008D5250008090001001200020015
:101DD0004925000871250008F8B506462A4801F093
:101DE000AFF82A4BD3F83831002B43D0284FD7E92E
:101DF0000134013B04D524E05A1C04F1680420D0CE
:101E0000B4F90C50013B002DF6D1224BE36004F1F4
:101E10005800656601F08CF81B4801F099F8C4E998
:101E20000155C4E9045508222560A561294604F13D
:101E30005C0000F045FDC4E90C55C4E9115520468D
:101E4000F8BD3D680DB12F46D1E74FF4D67130464D
:101E5000FFF7E6F9044680B10423C0E900530C30D3
:101E60002946A0604FF4D072254600F029FD3C6061
:101E70002F46BCE7FFF73AFFB8E703483C6001F0A4
:101E800067F80C233360DAE7A80900204C0800202B
:101E9000100400200100FFFF10B504460B4801F0BC
:101EA0004FF8636B2BB90A4B0A4AD3F83831626397
:101EB00023B1BDE81040054801F04AB8FFF716FF0E
:101EC000BDE81040014801F043B800BFA809002058
:101ED0004C080020751C0008014801F031B800BF13
:101EE000A8090020014801F033B800BFA80900206C
:101EF00008B5054801F024F8BDE80840034A044944
:101F0000002000F043BA00BFA80900201004002000
:101F1000B51C000808B5054A0549002000F036FA4E
:101F2000BDE80840034801F013B800BF10040020CA
:101F3000D11C0008A809002030B5144683B005461E
:101F400008B1436BFBB1636EDB0702D4A38998052C
:101F500013D52246284600F03BFA636EDA070546A1
:101F600002D4A3899B0502D5284603B030BDA06DDD
:101F700000F0EEFF284603B030BDA06D019100F0E7
:101F8000DFFF0199E5E70191FFF786FF0199DAE7A5
:101F9000144B70B51E6805460C460EB1736BE3B169
:101FA000636ED80702D4A389990512D52246294623
:101FB000304600F00DFA636EDA07054602D4A389B5
:101FC0009B0501D5284670BDA06D00F0C1FF2846D5
:101FD00070BDA06D00F0B4FFE8E73046FFF75CFF8E
:101FE000DEE700BF2004002030B587B00546084674
:101FF0001446019101F084FA01AA0123CDE90202FD
:10200000059004930DB16B6B63B3636EB4F90C2050
:10201000D80701D491051ED5900405D442F400528E
:1020200023F40053A281636699041FD4284603AAAF
:10203000214600F02BF8636E0546DA0702D4A38927
:102040009B0502D5284607B030BDA06D00F080FF8B
:10205000284607B030BDA06D00F072FFB4F90C2027
:10206000636ED9E72846FFF717FFCEE74FF0FF353D
:10207000E3E700BF10B4044C03460A4620685DF84D
:10208000044B1946FFF7B0BF200400209368002BD3
:1020900000F0F8802DE9F04FB1F90CC01CF0080FEA
:1020A00083B0904681460C4631D00B697BB31CF05F
:1020B0000207D8F8006038D00027D4F824B0E169CE
:1020C000DFF8C4A23D4655452B463A4628BF534645
:1020D0004846C5B1D847002840F3CA80D8F8083030
:1020E0001B1A07442D1AC8F80830002B00F0B680E0
:1020F00055452B46D4F824B0E16928BF53463A46EB
:102100004846002DE6D1D6E900750836DBE72146C2
:10211000484600F0C5FA002840F0AF80B4F90CC082
:10212000D8F800601CF00207C6D11CF0010A63D188
:102130002368A168574618468B46002F58D01CF4D8
:10214000007F00F0B580B9420A4600F2E1801CF43D
:10215000906F2FD0216962695D1A02EB420202EB97
:10216000D2726B1C52103B44934292BF93469B46E3
:102170001A461CF4806F00F0EA8011464846FFF7CB
:102180004FF8002800F0F9802A462169009001F0FC
:1021900017F9A289009B22F4906242F08002A2818A
:1021A0005819ABEB0505C4F814B02361A560206095
:1021B000BB463A465146009200F002FBA1682368F4
:1021C000009AA1EB0B011A443D46A1602260002752
:1021D000D8F808305B1BAA44C8F80830002B3DD063
:1021E0002368A168B4F90CC018468B46002FA6D10D
:1021F000D6E900A708369EE73846BB463D4600971D
:10220000002D41D0002846D0009A2068A168D4E96A
:102210000473AA4228BF2A46B84204D901EB030A34
:10222000524500F38580934275DCE169676A5A463E
:102230004846B847B0F1000A1ADD009BB3EB0A0329
:1022400000930FD00120D8F80830A3EB0A03D34441
:10225000A5EB0A05C8F80830002BD1D1002003B047
:10226000BDE8F08F2146484603F048F90028EAD03F
:10227000B4F90C3043F04003A3814FF0FF3003B0BA
:10228000BDE8F08F00207047756833460836002D92
:10229000FAD0D3F800B02A460A21584601F040F897
:1022A000002867D00130A0EB0B0300931A46ACE77F
:1022B00022699A4214D36269BA4211D86FF000437E
:1022C000BB4228BF3B46656A93FBF2F3E16902FB20
:1022D00003F348465246A847051EC9DD7F1B77E732
:1022E000B94228BF39460D4618460A46514600F005
:1022F00067FAA1682368491B2B44A1602360002969
:10230000ECD12146484603F0F9F80028E6D0AFE7C3
:10231000BB463A464EE75946019200F051FA019AFF
:10232000A3689B1AA360236813442360924684E742
:102330005946524600F044FA23685344236021462C
:10234000484603F0DBF800283FF477AF90E74846B3
:10235000FFF728FA034600287FF422AF2169484698
:1023600001F0E2F9B4F90C300C22C9F8002023F096
:1023700080037FE76A1C009247E70C22B4F90C3017
:10238000C9F8002076E700BF00FCFF7F2DE9F84385
:102390000746884616464FF00009D6E90154013D2C
:1023A00010D4A389012B08D9B4F90E30013321468A
:1023B000384602D0C04749EA0009013D6B1C04F1D0
:1023C0006804EED13668002EE7D14846BDE8F883B0
:1023D00070B50E461446054610B1436B002B2FD046
:1023E000636ED80702D4A389990520D5A368013B61
:1023F000002BA36019DAA26993420FDBF0B20A281E
:102400000CD023685A1C226005461E70636EDA07E2
:1024100002D4A3899B050ED5284670BD28462246C6
:10242000314600F0DBF80546F0E7F0B2E9E7A06DD1
:1024300000F086FDDAE7A06D00F08AFD284670BD49
:10244000FFF72AFDCCE700BF1E4B70B51E6805469E
:102450000C4616B1736B002B2FD0636ED80702D4D5
:10246000A389990520D5A368013B002BA36019DA45
:10247000A26993420FDBE8B20A280CD023685A1CE9
:10248000226006461D70636EDA0702D4A3899B059D
:102490000ED5304670BD30462246294600F09EF8E3
:1024A0000646F0E7E8B2E9E7A06D00F049FDDAE79B
:1024B000A06D00F04DFD304670BD3046FFF7ECFCDE
:1024C000CBE700BF200400200CB410B59CB01EABBD
:1024D000029106916FF0004104910791084953F869
:1024E000042B0591002402A901931B9401F018FA12
:1024F000029B1C701CB0BDE8104002B0704700BFCA
:102500000802FFFF0EB430B59CB06FF000411FAB66
:10251000049107910A4953F8042B02900024069075
:10252000084D0868019302A905951B9401F0F8F97C
:10253000029B1C701CB0BDE8304003B0704700BF68
:10254000200400200802FFFF10B50C46B1F90E1060
:1025500000F054FC002803DB236D0344236510BD09
:10256000A38923F48053A38110BD00BF00207047CE
:102570002DE9F0410C46B1F90C101F46CB0505467C
:1025800016460BD421F48051A1813B46B4F90E10BC
:1025900032462846BDE8F04100F070BCB4F90E1098
:1025A0000223002200F014FCB4F90C10EAE700BF8B
:1025B00010B50C46B1F90E1000F00AFCB4F90C305D
:1025C000421C0EBF23F4805343F480532065A38143
:1025D00010BD00BFB1F90E1000F0B2BBF8B50D464A
:1025E0001446064610B1436B002B4AD0B4F90C30A8
:1025F000A269A26018071FD52269EAB1EDB2990459
:10260000626E2F4624D592042FD422682369616913
:10261000D31A99422CDD0133A1680139A160511C04
:102620002160157062699A4219D0A389DB0701D530
:102630000A2D14D03846F8BD2146304600F030F857
:1026400098B9B4F90C30626EEDB299042F46DAD421
:1026500043F4005322F40052A3816266D3E721467B
:10266000304602F04BFF0028E4D04FF0FF37E1E79F
:102670002146304602F042FF0028F6D122680123AD
:10268000CAE7FFF709FCB1E710B4044C03460A4659
:1026900020685DF8044B1946FFF7A0BF2004002016
:1026A00038B52F4B1B6805460C4613B15A6B002AF0
:1026B0004BD0B4F90C3018071CD5226922B313F0A3
:1026C000010107D0616900204942A060A1613AB1CF
:1026D000002038BD980758BF6169A160002AF7D172
:1026E000190658BF1046F4D543F04003A3814FF0BC
:1026F000FF3038BDD9062CD55A0712D4226943F0D1
:102700000803A381002ADAD103F42071B1F5007F18
:10271000D5D02146284602F055FFB4F90C30226985
:10272000CDE7216B51B104F14002914204D028461B
:1027300000F0FAFFB4F90C30002222632269002174
:10274000C4E9002123F02403D9E71846FFF7A4FBCE
:10275000AFE7092243F040032A60A381C7E700BF27
:1027600020040020032A30B415D941EA0004A4074C
:1027700084460B4604D0541E0FE0043A032A08D9BD
:102780001946604653F8044B5CF8045BA542F4D04C
:10279000F1E760461946541E7AB1431E0139021909
:1027A00001E09A4209D013F8010F11F801CF6045FA
:1027B000F7D0A0EB0C0030BC7047002030BC704755
:1027C00088420ED98B1883420BD900EB020C002AE9
:1027D0006ED0624613F801CD02F801CD9942F9D1CD
:1027E00070470F2A0FD8034602F1FF3C002A5FD042
:1027F0000CF1010C013B8C4411F8012B03F8012F63
:102800006145F9D1704740EA01039B0751D1A2F11C
:10281000100370B501F1200C23F00F0501F1100E2B
:1028200000F11004AC441B095EF8105C44F8105C25
:102830005EF80C5C44F80C5C5EF8085C44F8085CDC
:102840005EF8045C44F8045C0EF1100EE64504F1F9
:102850001004E9D1013312F00C0F01EB031102F067
:102860000F0400EB031328D0043C24F003064FEAC6
:10287000940C1E441C1F8E465EF8045B44F8045FF3
:10288000B442F9D10CF1010402F0030203EB84031A
:1028900001EB840102F1FF3C4AB10CF1010C013B58
:1028A0008C4411F8012B03F8012F6145F9D170BD5B
:1028B000704702F1FF3C03469AE72246EAE700BF71
:1028C000830730B547D0541E002A3ED0CAB2034613
:1028D00001E0013C39D303F8012B9D07F9D1032C0A
:1028E0002CD9CDB205EB05250F2C05EB054535D9C7
:1028F000A4F1100222F00F0C03F1100EE6444FEA8F
:10290000121C1A46C2E90055C2E90255103272453E
:10291000F8D10CF1010214F00C0F03EB021204F0D9
:102920000F0C13D0ACF1040323F00303043313445E
:1029300042F8045B9342FBD10CF003042CB1C9B202
:102940001C4403F8011BA342FBD130BD644613466F
:10295000002CF4D1F9E703461446C0E71A46A44612
:10296000E0E700BF11F0FF01034600F0030239D099
:102970008ABB026810B501EB012E0EEB0E4E8EEAFB
:102980000204A2F1013323EA0203A4F1013222EA94
:102990000402134313F0803F0FD150F8044F84EA30
:1029A0000E0CA4F10133ACF1013223EA040322EA54
:1029B0000C02134313F0803FEFD0037823B936E0C5
:1029C00010F8013F002B32D09942F9D110BD8A4254
:1029D00028D09A0729D01A7818460133002AF6D150
:1029E00010467047CAB90268A2F1013323EA020314
:1029F00013F0803F08D150F8042FA2F1013323EAED
:102A0000020313F0803FF6D003785BB110F8013F6A
:102A1000002BFBD17047990705D0184613F8012BFE
:102A2000002AF8D170471846DDE71846A1E7184696
:102A300010BD00BF002A3ED030B58446044608438E
:102A400080070B462ED1032A07D82BE0043A25D065
:102A50001EF0803F22D1032A22D92068194653F85C
:102A6000045BA0F1013EA842A4462EEA000E04F148
:102A70000404EBD09CF800000C7884421DD1E6469B
:102A800068B11EF8010F11F8014FA2EB0E03A0422E
:102A900003F1FF3311D11CEB0303F1D1002030BD52
:102AA000A44619469CF800000C78A04205D1012AE2
:102AB000F4D0E646E4E710467047001B30BD00BF87
:102AC00038B5D0F838410CB1002038BD802105461A
:102AD000FEF7A6FB0246C5F8380130B1031F7C3271
:102AE00043F8044F9342FBD1EEE74FF0FF3038BD7F
:102AF00030B51F2983B0054609D8D0F838310C46C7
:102B000053B153F8240043F8242003B030BD1623FA
:102B100003604FF0FF30F8E780210192FEF780FB61
:102B2000019AC5F8380103460028F2D0011F00F1D0
:102B30007C05002041F8040FA942FBD1E1E700BF6A
:102B40001F2938B505461FD8D0F838210C466AB180
:102B500052F8213053B1012B06D0591C10D000215E
:102B600042F8241020469847002038BD284600F03F
:102B700071F9224601462846BDE8384000F054B9B4
:102B800016230360012038BD162303604FF0FF3089
:102B900038BD00BF1F292CD838B5D0F838310C46C5
:102BA0000546A3B153F8242003EB84034AB1511C1A
:102BB0000BD0012A07D0002520461D6090472846EB
:102BC00038BD012038BD032038BD022038BD80212A
:102BD000FEF726FB0346C5F8380138B1021F002175
:102BE0007C3042F8041F8242FBD1DBE74FF0FF301C
:102BF00038BD4FF0FF30704738B5144B1F281D68A3
:102C00001ED8D5F83821044662B152F820304BB1B5
:102C1000012B05D0591C0FD0002142F820109847F5
:102C2000002038BD284600F015F922460146284606
:102C3000BDE8384000F0F8B816232B60012038BDFD
:102C400016232B604FF0FF3038BD00BF200400205A
:102C5000124B1F2870B51E6809D8D6F838310446C3
:102C60000D464BB153F8240043F8245070BD162391
:102C700033604FF0FF3070BD80213046FEF7D0FA50
:102C80000346C6F838010028F3D0021F00217C302B
:102C900042F8041F8242FBD1E4E700BF2004002079
:102CA00038B50C4B1D68D5F838410CB1002038BD43
:102CB00080212846FEF7B4FAC5F8380138B1031F61
:102CC00000F17C0243F8044F9342FBD1EEE74FF052
:102CD000FF3038BD2004002038B5184B1F281D6870
:102CE00028D80446D5F83801A0B150F8243000EBBC
:102CF00084004BB15A1C0BD0012B07D00025056076
:102D000020469847284638BD012038BD032038BDED
:102D1000022038BD80212846FEF782FAC5F8380126
:102D200040B1031F00F17C01002243F8042F8B42C5
:102D3000FBD1DAE74FF0FF3038BD00BF20040020A0
:102D400038B5074D0022044608462A6006F00AF806
:102D5000431C00D038BD2B68002BFBD0236038BD4E
:102D600088090020194B1B6883422ED0416C70B536
:102D7000054681B100268C593CB12146246828467D
:102D800000F0D2FC002CF8D1696C0436802EF2D110
:102D9000284600F0C9FCA96B11B1284600F0C4FC1C
:102DA0002C6C34B121462468284600F0BDFC002C70
:102DB000F8D1E96C11B1284600F0B6FC6B6B1BB181
:102DC0002846BDE87040184770BD704720040020B9
:102DD00038B50C46084D8446114620461A46002355
:102DE0002B60644605F0C8FF431C00D038BD2B683B
:102DF000002BFBD0236038BD8809002038B50C4675
:102E0000084D8446114620461A4600232B6064462E
:102E100005F08AFF431C00D038BD2B68002BFBD087
:102E2000236038BD8809002070B50C46084D034664
:102E30000026204611461C462E6005F067FF431C05
:102E400000D070BD2B68002BFBD0236070BD00BF8D
:102E50008809002005F058BF38B5074D0022044608
:102E600008462A6005F08AFF431C00D038BD2B6855
:102E7000002BFBD0236038BD8809002038B50C46F4
:102E8000084D8446114620461A4600232B606446AE
:102E900005F05AFF431C00D038BD2B68002BFBD037
:102EA000236038BD88090020014B1868704700BFB7
:102EB0002004002070B50F4B0F4DAB42A3EB05066D
:102EC00007D0B610002455F8043B01349847A642B9
:102ED000F9D817F083F9094D094B5E1BAB424FEA55
:102EE000A60606D0002455F8043B01349847A642B4
:102EF000F9D870BD7CD101087CD101087CD10108D2
:102F000090D1010838B5074D074C2C1BA41005D0F3
:102F1000013C55F8043D9847002CF9D1BDE83840F4
:102F200017F062B994D1010890D10108704700BF31
:102F3000704700BF704700BF704700BF704700BFB9
:102F4000704700BF0120704701207047704700BFE5
:102F5000704700BF082802D14FF48050704708B571
:102F6000FFF7A2FF162303604FF0FF3008BD00BF3C
:102F70000000000000000000000000000000000051
:102F800002780B78012A28BF9A4240F0D8806DE978
:102F9000044540EA0104CDE902676FF0000C4FEAF6
:102FA00044721AB380EA010414F0070F6BD100F0E9
:102FB000070420F0070004F0030521F007014FEAA1
:102FC000C505F0E8042314F0040FF1E804670CFAD7
:102FD00005F462EA040266EA04060BD063EA04031D
:102FE000624667EA0407664604E000BFF0E804238F
:102FF000F1E8046782FA4CF582EA0604A4FA8CF43C
:103000006CBB83FA4CF583EA0705A5FA8CF595B9F4
:1030100050E9022351E9026782FA4CF582EA06047C
:10302000A4FA8CF483FA4CF583EA0705A5FA8CF52B
:103030002543DBD09CB92DBAB5FA85F424F00704FA
:1030400027FA04F1DDE9026723FA04F303F0FF0035
:1030500001F0FF01FDE80445A0EB0100704724BA30
:10306000B4FA84F424F0070426FA04F1DDE90267D7
:1030700022FA04F202F0FF0001F0FF01FDE804452E
:10308000A0EB0100704714F0030F3CD110F00304D3
:1030900028D150F8082B51F8083B82FA4CF582EA07
:1030A0000305A5FA8CF55DB950F8042C51F8043CE1
:1030B00082FA4CF582EA0305A5FA8CF5002DE8D0DA
:1030C0002DBAB5FA85F424F0070423FA04F122FAA4
:1030D00004F202F0FF0001F0FF01FDE80445A0EB5F
:1030E000010070474FEAC40420F0030050F8082B99
:1030F00021F0030151F8083B0CFA04F462EA0402DF
:1031000063EA0403C9E710F003041DD0A1EB040136
:1031100020F00300E40750F8042B06D012D28B787D
:103120005FFAA2F4E41A06D12BB1CB785FFAB2F4BD
:10313000E41A00D133B920465DF8104B7047A2EB7A
:103140000300704701F1040150F8042BCC0721F073
:10315000030151F8043B48D824D222F07F4482FA7C
:103160004CF594EA1325A5FA8CF50AD165B951F806
:10317000043B84EA0204B4EB036F0ED150F8042B35
:10318000EBE74FEA132355E035F07F454DD1087842
:10319000FDE80445C0F1000070474FEA126203F0F9
:1031A000FF0347E002EA1C4482FA4CF594EA134517
:1031B000A5FA8CF50AD165B951F8043B84EA0204FA
:1031C000B4EB034F0CD150F8042BEBE74FEA134359
:1031D00030E015EA1C4528D10B884FEA124229E05D
:1031E0004FEA124203EA1C4324E002F0FF0482FA91
:1031F0004CF594EA1365A5FA8CF50AD165B951F836
:10320000043B84EA0204B4EB032F09D150F8042BE9
:10321000EBE74FEA13630DE015F0FF0F05D10B68E4
:103220004FEA122223F07F4304E04FF00000FDE854
:103230000445704712BA1BBA82FA4CF482EA0304BE
:10324000A4FA8CF5B5FA85F402FA04F203FA04F351
:103250004FEA1260FDE80445A0EB1360704700BF21
:1032600080EA0102844612F0030F4FD111F0030FE0
:1032700032D14DF8044D11F0040F51F8043B0BD03E
:10328000A3F101329A4312F0803F04BF4CF8043B93
:1032900051F8043B16D100BF51F8044BA3F10132A1
:1032A0009A4312F0803FA4F101320BD14CF8043B59
:1032B000A24312F0803F04BF51F8043B4CF8044B8A
:1032C000EAD023460CF8013B13F0FF0F4FEA3323FB
:1032D000F8D15DF8044B704711F0010F06D011F8DA
:1032E000012B0CF8012B002A08BF704711F0020FC8
:1032F000BFD031F8022B12F0FF0F16BF2CF8022BB3
:103300008CF8002012F47F4FB3D1704711F8012BD5
:103310000CF8012B002AF9D1704700BF0000000013
:1033200001F0FF01102A2BDB10F0070F08D010F876
:10333000013B013A8B422DD010F0070F42B3F6D17A
:10334000F0B441EA012141EA014122F007047FF093
:1033500000070023F0E80256083C85EA010586EAEA
:10336000010685FA47F5A3FA87F586FA47F6A5FA26
:1033700087F68EB9EED1F0BC01F0FF0102F0070232
:1033800032B110F8013B013A83EA010313B1F8D1DD
:103390000020704701387047002D06BF35460338BE
:1033A000073815F0010F07D1013015F4807F02BFF7
:1033B000013015F4C03F0130F0BC0138704700BF48
:1033C000844641EA000313F003036DD1403A41D330
:1033D00051F8043B40F8043B51F8043B40F8043BEF
:1033E00051F8043B40F8043B51F8043B40F8043BDF
:1033F00051F8043B40F8043B51F8043B40F8043BCF
:1034000051F8043B40F8043B51F8043B40F8043BBE
:1034100051F8043B40F8043B51F8043B40F8043BAE
:1034200051F8043B40F8043B51F8043B40F8043B9E
:1034300051F8043B40F8043B51F8043B40F8043B8E
:1034400051F8043B40F8043B51F8043B40F8043B7E
:10345000403ABDD2303211D351F8043B40F8043B1E
:1034600051F8043B40F8043B51F8043B40F8043B5E
:1034700051F8043B40F8043B103AEDD20C3205D32E
:1034800051F8043B40F8043B043AF9D2043208D026
:10349000D2071CBF11F8013B00F8013B01D30B8898
:1034A00003806046704700BF082A13D38B078DD076
:1034B00010F003038AD0C3F10403D21ADB071CBF48
:1034C00011F8013B00F8013B80D331F8023B20F8B2
:1034D000023B7BE7043AD9D3013A11F8013B00F8EB
:1034E000013BF9D20B7803704B7843708B78837073
:1034F000604670470000000000000000000000006F
:1035000030B490F800F020F007016FF0000C10F0DC
:10351000070491F820F040F048804FF000046FF06D
:103520000700D1E9002391F840F000F1080082FA89
:103530004CF2A4FA8CF283FA4CF3A2FA8CF34BBB54
:10354000D1E9022382FA4CF200F10800A4FA8CF2CD
:1035500083FA4CF3A2FA8CF3E3B9D1E9042382FA9B
:103560004CF200F10800A4FA8CF283FA4CF3A2FAB0
:103570008CF37BB9D1E9062301F1200182FA4CF2E8
:1035800000F10800A4FA8CF283FA4CF3A2FA8CF34F
:10359000002BC6D0002A04BF04301A4612BAB2FA71
:1035A00082F200EBD20030BC7047D1E9002304F076
:1035B0000305C4F100004FEAC50514F0040F91F8AB
:1035C00040F00CFA05F562EA05021CBF63EA050348
:1035D00062464FF00004AAE72DE9F8431B4D06466A
:1035E000286898460F469146FFF7AAFC184B1C68BE
:1035F0001CB3286865681F2D22DC4EB96B1C023590
:10360000636044F82570FFF7A3FC0020BDE8F88351
:1036100004EB85010123C1F88890D4F88821AB40E0
:103620001A43022EC4F88821C1F80881E6D1D4F8E3
:103630008C211A43C4F88C21E0E7064C1C60D8E7C3
:10364000FFF786FC4FF0FF30E0E700BF6805002081
:103650003C0B0020AC0900200148FFF771BC00BF03
:10366000980900200148FFF773BC00BF98090020AB
:103670002DE9F843064608208946FFF76BFCDFF882
:10368000A48005463046FEF775F8D8F808305F6824
:1036900027F00307A7F11104A4EB09042C44B4FBA1
:1036A000F5F4013C05FB04F4A54208DC002130469A
:1036B000FFF7D2FBD8F808303B44984205D030469B
:1036C000FEF75EF80020BDE8F88361423046FFF760
:1036D000C3FB01300FD0114AD8F808303F1B47F028
:1036E00001075F60136830461B1B1360FEF748F844
:1036F0000120BDE8F88300213046FFF7ADFBD8F884
:103700000820831A0F2BDADD43F001035360044BCA
:1037100002491B68C01A0860D1E700BF1C080020DE
:10372000080400200000002000297CD02DE9F04191
:103730000C468046FEF71EF854F8043C754FA4F181
:10374000080523F001016818BE684268864222F02D
:10375000030200F08380DE07426000EB020C33D4EA
:1037600054F8084CDCF804302D1B2144AC6807F1F8
:10377000080C644503F0010364D0D5F80CE0C4F8EC
:103780000CE0CEF80840002B00F0818041F00103EE
:103790006B600160B1F5007F22D27868CB0801220E
:1037A000490901338A40024357F833107A6007EB26
:1037B000C302083AC5E9021247F83350CD604046CB
:1037C000BDE8F041FDF7DCBFDCF80430DB072BD5AA
:1037D00041F00103B1F5007F44F8043C0160DCD303
:1037E000B1F5206F4FEA512353D28B0903F1390011
:1037F00003F13802C300F818FB580838984203D187
:1038000061E09B68984204D05A6822F003028A4221
:10381000F7D8D868C5E902308560DD604046BDE86C
:10382000F041FDF7ADBF7047114407F1080C836804
:1038300063453FD0C268DA60936041F001036B607A
:103840006950A7E7002B5FD10A44D0E90213CB608F
:10385000996042F001036B60AA50B0E7DB070A44AD
:1038600007D454F8083CED1A1A44D5E90213CB608A
:10387000996042F001036B60274BBD601B68934267
:103880009DD8264B40461968FFF7F2FE97E7114492
:10389000CDE7142B08D9542B1DD80B0B03F16F0067
:1038A00003F16E02C300A6E703F15C0003F15B02C3
:1038B000C300A0E741F00103C7E90455C5E902CC04
:1038C0006B6069507BE779689210012404FA02F278
:1038D0000A437A609EE7B3F5AA7F06D8CB0B03F1C3
:1038E000780003F17702C30085E740F25452934217
:1038F00006D88B0C03F17D0003F17C02C3007AE74C
:103900004FF47E737E2276E741F001036B60016025
:1039100055E700BF000000200C040020180800201C
:103920002DE9F04FD5B00C46089115460A93079043
:1039300001F01CFF036814931846FFF7E1FDA3890B
:1039400013901E0603D52369002B00F02487002363
:103950009FEDA57BCDE92933CDE91633CDE91833A9
:103960000D93159305932B782BAA8DED107B289240
:103970009246002B00F0DA81A84604E018F8013FD7
:10398000002B00F01281252BF8D1B8EB050640F092
:10399000108198F80030002B00F0C88100238DF8CA
:1039A00083309B46049308F1010898F800304FF0EB
:1039B000FF3908F101081F46A7F120035A2B00F236
:1039C0002E81DFE813F0FA022C012C01F5022C0104
:1039D0002C012C016A002C012C019002A0022C0168
:1039E0009B020A032C0105035B005B005B005B008C
:1039F0005B005B005B005B005B002C012C012C0179
:103A00002C012C012C012C01BF012C015F0285002F
:103A1000BF01BF01BF012C012C012C012C01B702F9
:103A20002C012C01B0002C012C012C0169022C016D
:103A3000A6022C012C01B8062C012C012C012C0112
:103A40002C012C012C012C01BF012C015F028700ED
:103A5000BF01BF01BF01E802870080002C01DB022B
:103A60002C01CC02B200BC0280002C0169027D0056
:103A7000B5062C012C01D9062C017D00A7F13003DD
:103A8000002218F8017B02EB820203EB4202A7F14D
:103A90003003092BF5D904928EE7079E304601F0DA
:103AA00065FE436818931846FFF72AFD19900446EF
:103AB000304601F05BFE83681693002C40F02A86A6
:103AC00098F8003075E798F800304BF0200B70E75D
:103AD0004BF0100B1BF0200F00F0C3810A9B073343
:103AE00023F007031A46596852F8083B0A920A461F
:103AF0000029C0F27485B9F1000FC0F2B18753EA12
:103B000002012BF0800600F012850A2B72F10001F1
:103B100080F0388730338DF84F310123B346069358
:103B20000DF24F152FE04BF0100B1BF0200200F0B0
:103B300089810A9B073323F0070319465A6851F815
:103B4000083B0A912BF4806600210020B9F1000F98
:103B50008DF88300C0F2C48253EA020026F0800B85
:103B600040F0BD82B9F1000F40F09087002940F08D
:103B7000E38416F0010306931DBF30238DF84F3107
:103B80000DF24F1554AD06999DF883200023494549
:103B9000CDE90E33B8BF4946099302910C93002A30
:103BA0004ED0029B013302934AE0B8EB050600F0C9
:103BB000BD802A9B33442A93299B0133072BCAE9F2
:103BC0000056299305DC0AF1080A059B3344059346
:103BD000DFE6DDE9070128AA01F060FBB0B90DF1CD
:103BE000AC0AF2E7AFF30080000000000000000024
:103BF000DDE9070128AA01F051FB002800F08780C9
:103C0000099B1BB109990798FFF78EFD089B9B89BB
:103C10005B0601F16D82059855B0BDE8F08F002F6D
:103C200000F0848000228DF8EC708DF88320CDE9BF
:103C30000E22012302930992069391460C923BAD0A
:103C40001BF0020302D00299023102911BF08401A1
:103C50002A9C0B9105D1049902980E1A002E00F3AC
:103C6000B1808AB1299A0DF1830101320134CAF879
:103C70000010072A4FF001012A942992CAF8041073
:103C800000F380830AF1080A83B1299B21AA01333A
:103C90000234CAF80020072B4FF002022A9429931D
:103CA000CAF8042000F362830AF1080A0B9B802BF8
:103CB00000F04982069BA9EB0306002E00F38C82DC
:103CC0001BF4807F40F0B081069BCAF804301C448E
:103CD000299BCAF800500133072B2A94299300F33B
:103CE000EF820AF1080A1BF0040F05D0049B029A28
:103CF0009D1A002D00F35483DDE9042302998A42C2
:103D0000ACBF9B185B180593002C7FF471AF0023A8
:103D10002993099B1BB109990798FFF705FD0DF140
:103D2000AC0A45462B78002B7FF426AE2A9B002B4D
:103D30003FF46CAF089C079828AA214601F0AEFA20
:103D4000A38965E70A9B073323F00703B3EC027BE3
:103D500052EC171B0A9322F000431B938DED1A7A45
:103D6000DDE91A01AB4B4FF0FF328DED107B04F013
:103D700049FA002840F07A84DDE91A01A54B4FF09A
:103D8000FF32FCF7B1FF002840F07084DDE910013C
:103D900000220023FCF79EFF002840F02C879DF8AE
:103DA00083209D4D9D4B2BF0800B0321472FD8BFC7
:103DB0001D460023CDE90E330993029106919946E1
:103DC0000C93ECE69649299A1291102E29DDCDE943
:103DD0001C3751462046AA46089C079D904F04E098
:103DE000103E102E01F1080116DD013210301023B3
:103DF000072ACDE929200F604B60F1DD28AA214672
:103E0000284601F04BFA00287FF4FAAE103E102E3F
:103E1000DDE929202BA9E8DCDDE91C3755460446FD
:103E20008A4601321299CAF800103444072ACDE9B3
:103E30002924CAF8046000F302869DF883200AF161
:103E4000080A0EE70A9951F8043B0A911BF0100189
:103E50007FF478AE1BF0400000F0A7869BB20A46C4
:103E600070E60A9A1BF0100F52F8043B0A9240F0D9
:103E7000E4831BF0400F00F0DC8343F3C0321146B3
:103E80001BB235E60A9B002253F8041B8DF88320F1
:103E90008DF8EC100A93CAE60A9C54F8045B0026DD
:103EA0008DF88360002D00F02586B9F1000FC0F277
:103EB00081844A4631462846FFF732FA09900028A5
:103EC00001F09480099B5B1BB146069323EAE373E0
:103ED000CDE90E999DF883200A940293CDF82490A1
:103EE000CDF830905BE60A9B53F8042B0492002A2D
:103EF00080F29A83049A0A935242049298F800300E
:103F00004BF0040B55E52B238DF8833098F80030E7
:103F10004FE54BF0100616F0200200F049830A9B93
:103F2000073323F0070319465A6851F8083B0A91F2
:103F300001210AE698F800304BF0080B39E50A9A9F
:103F400052F8043B0A9247F63002ADF88420354A15
:103F500015924BF00206002202217827F5E51BF0AE
:103F6000200F00F06E830A9B059A1B681A60D21717
:103F70005A600A9B04330A934546D3E698F800300A
:103F80006C2B03BF98F801304BF0200B08F10108AF
:103F90004BF0100B0DE598F80030682B03BF98F834
:103FA00001304BF4007B08F101084BF0400B00E5B9
:103FB00098F800304BF0010BFBE49DF8832098F853
:103FC0000030002A7FF4F5AC20228DF88320F0E445
:103FD00098F800304BF0800BEBE4424612F8017B7E
:103FE0002A2F01F03781A7F13003092B98BF4FF03A
:103FF000000901F2128012F8017B09EB890903EB39
:104000004909A7F13003092BF5D949EAE979904626
:10401000D2E400BFFFFFEF7FE4A60108E0A601089D
:1040200068A30108F0A60108652F40F35981DDE976
:10403000100100220023FCF743FE002800F0EA8173
:10404000299BA54ACAF80020013301340122072B1D
:104050002A942993CAF8042000F30B850AF1080A70
:10406000229B0D9A934280F2DA82139B149A1C448D
:10407000CAE90023299B2A940133072B299300F3D3
:104080007E830AF1080A0D9B5D1E002D7FF72BAE83
:10409000102D299B41F3C18090490B912246DDE907
:1040A000077910260C4605E00AF1080A103D102D8C
:1040B00040F3F28401331032072BCAE90046CDE900
:1040C0002932F1DD28AA4946384601F0E7F80028F0
:1040D0007FF496ADDDE929320DF1AC0AE6E75E46E4
:1040E00001293FF412AD022954AD11D1159803F006
:1040F0000F011B09415C05F8011D43EA0273120917
:1041000053EA0201F3D154AB5B1BB34606933AE585
:1041100003F00701DB0843EA4273D208303153EA67
:104120000204284605F8011DF2D1F207EBD530292B
:10413000E9D03023023805F8013C54AB1B1AB346D2
:10414000069305461FE5049B029A9E1A002E7FF7F0
:10415000B1AD624A299B0B92102E29DD1297514670
:104160002046AA46079C089D5C4F1A4604E0103E74
:10417000102E01F1080116DD013210301023072A3C
:10418000CDE929200F604B60F1DD28AA29462046A1
:1041900001F084F800287FF433AD103E102EDDE9E5
:1041A00029202BA9E8DC129F5546044613468A466F
:1041B00001330B9ACAF800203444072BCDE9293487
:1041C000CAF8046000F38384069BA9EB0306002E63
:1041D0000AF1080A7FF774AD404A299B0B92102E12
:1041E0002CDD52462146B246079C2E464FF0100960
:1041F000089D06E0AAF1100ABAF1100F02F10802B8
:1042000018DD013335481031072BC2E90009CDE92B
:104210002931EFDD28AA2946204601F03FF8002881
:104220007FF4EEACAAF1100ABAF1100FDDE92931E2
:104230002BAAE6DC35460C465646924601330B9ACD
:10424000CAF800203444072BCDE92934CAF80460A9
:1042500000F3A1810AF1080A32E5299B1E49CAF838
:104260000010013301340121072B2A942993CAF845
:10427000041000F3C5840AF1080A002A40F04B84B8
:104280000D9A0BF0010313433FF42DAD139B149AC9
:104290001C44CAE90023299B2A940133072B299344
:1042A00000F342850AF1080A0D9ACAF8005001335A
:1042B0001444072BCDE92934CAF804207FF711AD47
:1042C000DDE9070128AA00F0E9FF00287FF498AC97
:1042D0002A9C0DF1AC0A06E520A7010878A3010885
:1042E0000D9B299E012B04F1010406F101060AF140
:1042F000080740F302810123072ECDE92964CAF89B
:104300000050CAF8043000F37281139B149A0136EE
:104310001C44072EC7E90023CDE9296400F373810B
:1043200008370D9BDDE9100103F1FF39002200235E
:10433000FCF7C6FC002840F00481013601354C44EE
:10434000072ECDE929643D60C7F8049000F3E380AF
:104350000837179B7B6001361C44072E24ABCDE940
:1043600029643B60ACDC07F1080ABCE4DDE9070125
:1043700028AA00F093FF00287FF442AC2A9C0DF19C
:10438000AC0A93E4DDE9070128AA129300F086FF46
:1043900000287FF435AC2A9C129B0DF1AC0A73E423
:1043A000102D299B40F36086AE4F1297DDE907B9C7
:1043B000102604E0103D102D0AF1080A16DD013325
:1043C0001034072BCAE90076CDE92934F2DD28AA9A
:1043D0004946584600F062FF00287FF411AC103DBA
:1043E000102DDDE929340DF1AC0AE8DC0133129A15
:1043F0002C44072BCAE90025CDE929347FF77CAC92
:10440000DDE9070128AA00F049FF00287FF4F8AB96
:104410002A9C71E4229A002A7FF71FAFDDE90C7312
:104420009F42A8BF1F46002F0BDD299B01333C4450
:10443000072BCAE900572A94299300F3AA850AF1A9
:10444000080A0C9E002FA8BFF61B002E00F3BA81AD
:104450000C9B1BF4806F2B44994640F0DA81229B21
:104460000D9A9342C0F265821BF0010F40F0618209
:104470000D9AAE18A6EB0906D51AAE42A8BF2E4675
:10448000002E0DDD299BCAF8009001333444072B20
:10449000CAF804602A94299300F3C4850AF1080A33
:1044A000002EA8BFAD1B002D7FF71DAC102D299B42
:1044B00040F3B3866C490B912246DDE9077910265B
:1044C0000C4605E00AF1080A103D102D40F3E48285
:1044D00001331032072BCAE90046CDE92932F1DD5C
:1044E00028AA4946384600F0D9FE00287FF488AB58
:1044F000DDE929320DF1AC0AE6E71BF0010F7FF48C
:10450000FAAE0123072ECDE92964CAF80050CAF893
:1045100004307FF71EAFDDE9070128AA00F0BEFED8
:1045200000287FF46DABDDE929642BAF11E7B9F109
:10453000000F7FF4EFAAB346CDF8189054ADFFF703
:1045400022BB0D9B012B7FF704AF112B464B0B9326
:1045500040F319832246DDF81CA010251C4606E016
:104560000837A9F11009B9F1100F40F30B83013698
:104570001032072EC7E90045CDE92962F0DD089920
:1045800028AA504600F08AFE00287FF439ABDDE906
:1045900029622BAFE5E7DDE9070128AA00F07EFEDE
:1045A00000287FF42DAB2A9C0DF1AC0AFFF788BBE5
:1045B0000A9951F8043B0A9116F010010CD116F03B
:1045C000400004D00A469BB20121FFF7BEBA16F4A0
:1045D00000721CBFDBB202460121FFF7B6BA5B4294
:1045E00062EB42025E462D200121FFF7AFBADDE902
:1045F000070128AA00F052FE00287FF401ABDDE994
:1046000029642BAF81E6DDE9070128AA00F046FE08
:1046100000287FF4F5AADDE929642BAF81E61BF0C1
:10462000010F3FF460AB20E50A9398F80030FFF7E4
:10463000C0B91BF4007F40F06B83DA171146FFF717
:1046400057BA1BF0100F40F04F821BF0400F40F0A4
:1046500065831BF4007F00F047820A9B059A1B6864
:104660001A7086E468A3010878A30108DDE9100147
:1046700002460B4603F0C6FD002840F07185612F0D
:1046800000F09484412F00F0BE84B9F1FF3F00F0A8
:10469000668327F02003472B00F03A850990DDE977
:1046A00010014BF4807200291292C0F25C849DEDDF
:1046B000107B8DED1E7B00230B93A7F14103252B6F
:1046C00000F2AC82DFE813F09403AA02AA02AA0265
:1046D0004F032504AA02AA02AA02AA02AA02AA0257
:1046E000AA02AA02AA02AA02AA02AA02AA02AA026A
:1046F000AA02AA02AA02AA02AA02AA02AA02AA025A
:10470000AA02AA02AA02AA029403AA02AA02AA025E
:104710004F032504169A98F80030002A3FF449A95F
:104720001278002A3FF445A94BF4806BFFF741B99A
:104730005E46FFF7F0BB9A4B15931BF0200200F08A
:1047400007810A9B073323F0070319465A6851F87B
:10475000083B0A911BF0010F09D053EA020106D071
:1047600030218DF885704BF0020B8DF884102BF4FE
:1047700080660221FFF7E9B98A4B1593DDE7DDE991
:10478000070128AA00F08AFD00287FF439AA2A9C94
:104790000DF1AC0A77E407984021FCF741FD089B36
:1047A00018601861002800F0A084089A4023536123
:1047B000FFF7CDB82846FEF7A3FEB14603460690A4
:1047C000FFF784BB102E299B40F3418576480B9060
:1047D00052462146AA46DDE907941027054604E023
:1047E0000832103E102E40F3F48101331031072BB4
:1047F000C2E90057CDE92931F2DD28AA2146484611
:1048000000F04CFD00287FF4FBA9DDE929312BAA3B
:10481000E7E70D9BCDF83080EB1806930E9BDDF893
:104820003C80CDF848B0002B4F4652462146DDE98A
:1048300007BADDF85890199C0F9531DDB8F1000FDB
:1048400040F3118108F1FF382998189B0130214469
:104850000728C2E900342A91299000F388800832A1
:10486000069B99F80000DE1B8642A8BF0646002E74
:104870000CDD2998013031440728C2E900762A91DD
:10488000299000F3178199F800000832002EACBF80
:10489000851B0546002D16DC07440E9B002BCDDC46
:1048A000B8F1000FCEDC0F9D0D9BCDF85890EB18A2
:1048B0009F42B946DDF83080DDF848B092460C469C
:1048C00028BF9946CBE5102D2998374B23DD0B9453
:1048D00010262C461D4604E0103C102C02F1080264
:1048E00016DD0130304B10310728C2E90036CDE922
:1048F0002901F1DD28AA5146584600F0CFFC0028D6
:104900007FF47EA9103C102CDDE929012BAAE8DCFC
:104910002B4625460B9C1360013029440728CDE91E
:104920002901556000F3278399F8000008320744F5
:10493000B3E7139A14991444CAE90012299A2A94E5
:104940000132072A299200F343830AF1080A8FE50E
:104950000A9951F8043B0A911BF010017FF4FAAE5A
:104960001BF0400000F01B819BB20A46F2E628AA29
:104970005146584600F092FC00287FF441A92A993C
:104980002BAA6DE706F48061002006970996DFF8F0
:104990001CB0169ECDF8088054AD84460F460DE03D
:1049A00004A70108F0A6010878A30108CDCCCCCC5F
:1049B0000A2B72F1000235D343462246991841F181
:1049C0000001ABFB010424F0030000EB9400091A82
:1049D000581A4FF0CC3462F1000E04FB00F40BFBCC
:1049E0000E44A0FB0B80044408F0010E0520AEFB32
:1049F000000E40184FEA5808303005F8010C48EA1C
:104A0000C4780CF1010C013D6408002FD0D031783E
:104A10008C45CDD1BCF1FF0FCAD00A2B72F1000238
:104A200080F0CA80169654AB099E069FDDF8088078
:104A3000CDF834C05B1BB3460693FFF7A4B8DDE99D
:104A4000070128AA129300F029FC00287FF4D8A8B7
:104A50009DF883202A9C129B0DF1AC0AFFF701B947
:104A60005E46FFF752B80E9B013B09F1FF390E93EA
:104A7000EAE6DDE9070128AA00F010FC00287FF42F
:104A8000BFA82A9C0DF1AC0AFFF7EABA01295E46DD
:104A90007FF429ABFFF73EB8144601330B9ACAF8EE
:104AA00000202C44072BCAF80450CDE929347FF7A5
:104AB00018A905E428AA5146584600F0EFFB002843
:104AC0007FF49EA899F800002A992BAADEE6DDE97A
:104AD000070128AA00F0E2FB00287FF491A82A9C95
:104AE0000DF1AC0AFFF7E6B80A9B059A1B681A603D
:104AF000FFF73FBA4B46062BA94628BF0623099568
:104B00002A46CDE90E99B74D02930A940693CDF843
:104B10003090FFF744B8139B14991C44CAE9001362
:104B2000299B2A940133072B299300F3FD800AF176
:104B3000080A002ABFF6B8AB5642103280F2A083B2
:104B4000A9480B9052462146DDE9079A10270446F2
:104B500004E00832103E102E40F3E482013310319D
:104B6000072BC2E90047CDE92931F2DD28AA5146D9
:104B7000484600F093FB00287FF442A8DDE9293184
:104B80002BAAE7E7144601360B9B3B604C44072EEB
:104B9000CDE92964C7F804907FF7DAABBBE41BF4D6
:104BA00000721CBFDBB20246D4E51BF400721CBFCE
:104BB000DBB20246FEF7C6BF199B1899ED1A1A46DA
:104BC000284600F09DFD737803B101364FF0000CCC
:104BD000F2E655460C46924601330B9ACAF800207D
:104BE0003444072BCDE92934CAF8046000F3AA80C5
:104BF0000AF1080A2CE42D228DF88320FFF7D1B8A2
:104C0000DDE9070128AA00F049FB00287EF4F8AF8F
:104C1000229A2A9C0DF1AC0AFFF72FBB26AB019319
:104C200023AB00939DED1E0B079822AB4A46022151
:104C300000F094FE1BF0010F054640F0EA81269B30
:104C40001B1A0D93229B0C930C9BD91C02DB9945DC
:104C500080F26A810C9B023F013B2293FAB2002151
:104C6000002BB8BF0C9B8DF89020BABFC3F1010395
:104C70002D222B22092B8DF8912040F316820DF165
:104C80009F045A4E22461046A6FB0312D20802EB9E
:104C90008201A3EB4101303100F8011C1946632960
:104CA000134600F1FF32EEDC303302F8013C831E84
:104CB000A34280F0DA820DF1910213F8011B02F891
:104CC000011FA342F9D154AB181AA0F1AD031793F9
:104CD0000D9B179A012B1A44069240F30182069B02
:104CE000139A13440693069A2BF4806343F4807B53
:104CF00022EAE27200230F9302920E930C930B9B15
:104D0000002B40F00A819DF883209946FEF747BFAB
:104D100043F3C01211465BB2FEF7EABE0A9B059A46
:104D20001B681A80FFF725B9DDE9070128AA00F002
:104D3000B5FA00287EF464AFDDE92934229A0DF13A
:104D4000AC0AF6E6DDE9070128AA00F0A7FA002878
:104D50007EF456AF2A9C0DF1AC0AFFF779BB09909F
:104D60004FF006099BE409F1010302930221029C22
:104D7000079826AB019323AB009322469DED1E0BB3
:104D800022AB00F0EBFD27F02006462E054604443A
:104D900018BF452605D12B78302B00F06981229B66
:104DA0001C44DDE91E0100220023FBF789FF0028D7
:104DB00040F02B81269BA34206D230215A1C26921A
:104DC0001970269B9C42F9D8229A0C925B1B472EA5
:104DD0000D933FF439AF462E00F058810C9B013BF8
:104DE0003BE700BF18A7010878A30108CDCCCCCCC5
:104DF00022A89DED1E0B00F0E9FC00224FF07F532E
:104E000051EC100BFBF7F4FC02460B46CDE90223F4
:104E100000220023FBF754FF08B101232293B74A75
:104E2000B74B1295612F08BF1A46CDE90EBACDE9EE
:104E30000C8709F1FF360692DDE902899346AA46FE
:104E400008E000220023741EFBF73AFF002840F020
:104E5000CE812646AB4B002240464946FBF7C8FCB4
:104E60000D46044603F0E4F90746FBF757FC0B46F2
:104E7000024629462046FBF703FB1BF80730751C4A
:104E8000544680460AF8013B8946DAD19E4BDDF84C
:104E900038B0129D0022CDE902893E46D146DDF8A8
:104EA0003080DDF83CA00D9FFBF732FF40B9DDE913
:104EB0000201954B0022FBF703FFD8B1F00719D58B
:104EC000069B2694D97B19F8012C8A424B4609D1BE
:104ED000302003F8010C269B5A1E269213F8012C51
:104EE0009142F6D0392A0BBF069A0132927AD2B299
:104EF00003F8012CA9EB05030D93229B0C93612F62
:104F000003F1FF33229300F08B81502241270121CE
:104F1000A6E6CDF80890032129E72D228DF88320FD
:104F20004FF00009FEF73DBEDDE90C23934200F38C
:104F300089801BF0010F0C9B00F01081139A134421
:104F400006931BF4806F03D00C9B002B00F317819A
:104F5000069B23EAE373029367270023CDE90E3310
:104F6000DDF848B0CBE601F100431F932D231E90DE
:104F70000B93FFF7A2BB28AA5146584600F08EF9C2
:104F800000287EF43DAE99F800002A992BAA074428
:104F900083E4DDE9070128AA00F080F900287EF407
:104FA0002FAE2A9C0DF1AC0AFFF74BBA78238DF88F
:104FB0008530B9F1630F4FF030034BF0020B8DF8E1
:104FC000843000F38180002309933BADFFF767BB7A
:104FD000DDE9070128AA00F061F900287EF410AE8F
:104FE000229B2A9C0DF1AC0AFFF742BACDF808903B
:104FF000CDF81890CDE90E009DF883200A948146E3
:105000000C90FEF7CCBD5823D1E7229A0C92234690
:10501000DCE600EB09044726C3E690464FF00009A2
:10502000FEF7CABCDDE9070128AA00F037F900281D
:105030007EF4E6AD229D0D9B2A9C5D1B0DF1AC0A12
:10504000FFF72EBA0D9B139A9A180C9B0692002B11
:1050500040F3BD8067271BF4806F40F09180069B72
:1050600023EAE373029378E7284A1292FFF7BEB966
:10507000DDE91E0100220023FBF722FE002800F0DC
:10508000D180229B0C931C44631B0D930C9A0BF054
:105090000103002A43EA090340F3C980002B40F0D2
:1050A0009F800C9B06936627D5E7002940F0B280CD
:1050B00030228DF892200DF19302303302F8013B3B
:1050C00024ABD31A179303E6079809F10101FCF703
:1050D000A7F80546002800F0CB800990FFF7DFBA5B
:1050E0001BF0010F3FF4FFADF9E5079A0C231360A5
:1050F0004FF0FF330593FEF78EBD00BF04A70108F4
:10510000F0A60108000030400000E03F68A301085D
:10511000B9F1000F7FF4C2AACDF824904FF0010935
:10512000FFF7BDBA92460C4601330B9ACAF800202D
:105130003444072BCDE92934CAF804607FF7B2A8BC
:10514000DDE9070128AA00F0A9F800287EF458AD8F
:10515000DDE929340DF1AC0AFFF7A6B80693F0E6B5
:10516000119B4B4D002BB4BF2D229DF88320494B42
:10517000B8BF8DF883202BF0800BFEF716BE672793
:1051800016990B78FF2B7ED000240C9A204603E062
:1051900001300131FF2B08D0934206DAD21A4B7846
:1051A000002BF5D10B780134F4E7CDE90E0416910C
:1051B0000C92DDE90E231999DDF848B01344069AE4
:1051C00001FB0323069323EAE373029397E5C3F1FC
:1051D00001031A4422EAE273069202936727BCE6AF
:1051E000139B09EB0307BB180693662733E7002ED2
:1051F000D146DDE90C87DDF838B0DDF83CA0129D22
:10520000FFF678AE731C4B44302209F8012B4B4556
:10521000FBD16FE60DF192024FE71F4A0B923CE47F
:10522000702274E6029BC3F101032293B8E523B90F
:1052300001230293662706938FE6139B5F1C07EBFF
:105240000903069323EAE3730293662785E6124A6D
:105250000B92C1E40A9998F8013051F8049B0A9125
:10526000904649EAE979FEF7A4BB022317932FE59C
:1052700008998B8943F0400213468A81FEF7C8BC27
:10528000054A0B9250E70023CDE90E3391E700BFAA
:10529000ECA60108E8A6010878A301082DE9F84367
:1052A000154692682C68FAB180468946083401E0B8
:1052B0000834CFB16B68591E002B1746696013DDA7
:1052C00054F8046C002EF3D0334654F8082C4946A9
:1052D000404601F0E1FF431C07D0AA68921B174625
:1052E000AA600834002FE5D100200023C5E901336E
:1052F000BDE8F88370B500293FD006460C4610B1D2
:10530000436B002B3CD0636EB4F90C20DD0732D424
:10531000900538D52146304600F054F8E36A05463A
:1053200033B1E169304698470028B8BF4FF0FF35E8
:10533000A3891A0639D4216B41B104F14003994283
:1053400002D03046FEF7F0F900232363616C21B1EF
:105350003046FEF7E9F900236364FCF7BDFD636E98
:105360000022DB07A2811CD5A06DFDF7E5FDFCF74F
:10537000B9FD284670BD002ACCD10025284670BD55
:10538000FCF78AFDBFE7A06DFDF7DAFDB4F90C303C
:10539000002BBFD1636ED907EFD4A06DFDF7D8FD08
:1053A000EBE7A06DFDF7D4FDDEE721693046FEF79F
:1053B000BBF9C0E7024B01461868FFF79BBF00BF6F
:1053C00020040020B1F90C202DE9F04116070C460D
:1053D00080464ED4496842F400630029A38163DD0E
:1053E000A56A002D42D0002112F48052D8F8006046
:1053F000C8F80010E16964D101234046A847451C64
:1054000002466ED0B4F90C30A56AE169580705D59B
:105410006368D21A236B0BB1E36BD21A00234046A8
:10542000A847431C4FD1D8F80010B4F90C301D29FF
:1054300040D8314ACA40D7073CD52269226023F4BC
:105440000062A281DD044FF00002626001D50029F4
:1054500045D0216BC8F8006041B104F14003994286
:1054600002D04046FEF760F9002323630020BDE828
:10547000F0810E69002EF9D00D680E6092070CBF06
:105480004B690023AD1B8B600BE02B463246E16974
:10549000676A4046B847B0F1000CA5EB0C056644BE
:1054A00006DD002DF1DCE1E7E16B002998DCDDE7AA
:1054B000B4F90C3043F04003A3814FF0FF30BDE856
:1054C000F081226DA2E7B4F90C302269226023F446
:1054D0000062A281DB044FF000026260B9D5206552
:1054E000B7E7D8F80030002B8CD01D2B01D0162B3D
:1054F000DED1C8F80060B9E70100402038B50C469D
:10550000054608B1436B03B3B4F90C0088B1636E70
:10551000DB0701D481050FD528462146FFF752FF4E
:10552000636EDA07054602D4A3899B0508D5284691
:1055300038BD0546284638BDA06DFDF701FDEBE7F7
:10554000A06DFDF705FD284638BDFCF7A5FCDBE79F
:1055500050B338B5174B1D6804460DB16B6BBBB12A
:10556000B4F90C0088B1636EDB0701D4810513D553
:1055700028462146FFF726FF636EDA07054602D468
:10558000A3899B050CD5284638BD0546284638BD5D
:105590002846FCF781FCE3E7A06DFDF7D1FCE7E7C7
:1055A000A06DFDF7D5FCEEE7034A04490448FCF77B
:1055B000EDBE00BF2004002010040020FD540008B0
:1055C000280400202DE9F041B1F90C300C46990770
:1055D00096B008D504F143030122C4E904322360E4
:1055E00016B0BDE8F081B4F90E100029064626DB9E
:1055F0006A4600F0C3F800281FDB019D05F47045E2
:10560000A5F50055B5FA85F54FF480686D094FF49E
:10561000006741463046FBF703FEE8B1B4F90C30B1
:10562000C4F8148043F0800320602061A3813DBB57
:105630003B43A38116B0BDE8F081B4F90C3013F000
:10564000800519D04FF040080025414630462F46CE
:10565000FBF7E6FD0028E1D1B4F90C309A05BFD480
:1056600023F0030304F1430243F002030121C4E9E0
:105670000421A3812260B3E74FF480682F46C8E776
:10568000B4F90E10304600F08FF810B9B4F90C30B0
:10569000CEE7A38923F0030343F001031BB2C7E75E
:1056A00070B50C46B1F90E10002996B015461E468D
:1056B00014DB6A4600F062F800280FDB019901F460
:1056C0007041A1F50051B1FA81F14FF480634909AD
:1056D0004FF4006031602B6016B070BDA18911F0ED
:1056E000800106D000214023084631602B6016B0AF
:1056F00070BD4FF48063084631602B6016B070BDFA
:1057000040EA01039B0710B501D1032A17D884464C
:1057100001F1FF3E07E01EF8011F03F8011B541EB4
:1057200029B19C4622466346002AF4D110BD944418
:10573000002CFBD003F8011B6345FBD110BD8E4646
:105740008446DEF80040A4F1013323EA040313F099
:10575000803F71460EF1040EDAD1043A032A4CF868
:10576000044BEED87146D3E7F030704700487047DD
:105770005C060020004870475C06002070B50C46AF
:10578000084D03460026204611461C462E6003F0B5
:10579000ECFA431C00D070BD2B68002BFBD02360BB
:1057A00070BD00BF8809002038B5074D00220446AF
:1057B00008462A6003F0DEFA431C00D038BD2B688F
:1057C000002BFBD0236038BD8809002070B555EC54
:1057D000104B0646134825F00043002183423160F8
:1057E0001DD8204618431AD00F4828402A4658B9D9
:1057F0000E4B002220462946FAF7FAFF0A4621F00E
:10580000004304466FF035011B156FF31E52A3F2DF
:10581000FE3342F07F550B4445F40015336045ECF0
:10582000104B70BDFFFFEF7F0000F07F0000504382
:105830002DE9F04F03690C69A34283B0C0F28A805E
:10584000013C01F1140500F1140855F8243058F812
:10585000242001339A428E4681464FEA840105EBAB
:10586000840708EB840AB2FBF3F63AD3CDE90015BE
:105870000022AC46404613465CF8041B05681FFA3C
:1058800081FB06FB0B22090C4FEA124B06FB01BB06
:1058900092B2A9B2891A19441FFA8BF3C3EB2143C0
:1058A00003EB154389B241EA0341674540F8041B05
:1058B0004FEA1B424FEA2343DED2DDE9001558F8D8
:1058C000013073B9AAF1040AD04504D307E0D045EA
:1058D00004F1FF3403D25AF80439002BF7D0C9F889
:1058E00010407146484601F05DFA00282EDB414623
:1058F000002255F8040BD1F800C01FFA80FE1FFAF1
:105900008CF3A3EB0E031344020CC2EB234202EB15
:105910001C429BB243EA0243AF4241F8043B4FEAC8
:105920002242E6D258F8242008EB84036AB9043BEB
:10593000434504D807E0984504F1FF3403D253F8F7
:105940000429002AF7D0C9F810400136304603B0C8
:10595000BDE8F08F002003B0BDE8F08F2DE9F04FD7
:105960009DB0CDE90A320291816B269D04908DEDA8
:10597000060B57EC106B49B1C26B4A600123934090
:1059800004468B6000F052FF0023A363B7F10009C7
:10599000B4BF012300232B60774BBCBF29F0004923
:1059A000CDF81C9033EA090300F0AA809DED067B38
:1059B000002251EC170B00238DED007BFBF780F9E3
:1059C000804668B10A9A01231360279B13B1279A76
:1059D0006A4B13606A4B059305981DB0BDE8F08FC4
:1059E0009DED000B04981AAA1BA901F049FB5FEA80
:1059F0001955824640F09A80DDE91A85454405F242
:105A00003243202B40F38C83C3F1400309FA03F99E
:105A100005F2124326FA03F349EA0300FAF76EFE91
:105A20000123013DA1F1F8711293564B0022FAF7C0
:105A300027FD4BA3D3E90023FAF7DAFE4AA3D3E903
:105A40000023FAF71FFD064628460F46FAF766FEC2
:105A500047A3D3E90023FAF7CBFE02460B463046B4
:105A60003946FAF70FFD06460F4602F0E1FB002229
:105A700004460990002330463946FBF72BF90028ED
:105A800040F02483099CA8EB050808F1FF33162C8D
:105A9000089300F28C813C4B03EBC403D3E9002351
:105AA000DDE90001FBF716F9002873D0631E0993A6
:105AB00000231193089B002BC0F27F8100230C93DD
:105AC000099B002B6CDA099B0C9A0D93D21A0C924D
:105AD0005A4200230993029B1092092B6AD8052B86
:105AE00040F32383043B02930025029B023B032BDC
:105AF00000F23886DFE813F070046D046504490491
:105B00000A9AC9F3130942F20F7359EA060913609E
